S01B000053656C656363696F6E61646F725F43616A61732E737265638D
S11300000C9434000C9446000C9446000C94460066
S11300100C9446000C9446000C9446000C94460044
S11300200C9446000C9446000C9446000C94480032
S11300300C9465000C9446000C9446000C94460005
S11300400C9446000C9446000C9446000C94460014
S11300500C9446000C9446000C9446000C94460004
S11300600C9446000C94460011241FBECFEFD8E038
S1130070DEBFCDBF22E0A0E0B1E001C01D92A530FB
S1130080B207E1F70E94C1000C9466010C940000D1
S11300901F920F920FB60F9211248F939F93EF9399
S11300A0FF93E8E8F0E080819181805E914B918339
S11300B080838EB381608EBBFF91EF919F918F916E
S11300C00F900FBE0F901F9018951F920F920FB6AE
S11300D00F9211248F939F93EF93FF93EAE8F0E03C
S11300E0808191814496918380838EB384608EBB9A
S11300F0FF91EF919F918F910F900FBE0F901F90E2
S1130100189582E284B981E085B90895109280003F
S113011082E08093810080E29EE490938900809342
S1130120880084E190E090938B0080938A0086E0BD
S113013080936F0086B386BB0895E0ECF0E0808185
S1130140808382E0808388E08093C10086E080938E
S1130150C20080E190E09093C5008093C4000895AC
S11301608EB38E7F8EBB80910401815080930401F5
S1130170811106C08EE1809304018EB382608EBB30
S11301800895F8940E9481000E9486000E949D00B8
S1130190789410920001109202018EE18093040180
S11301A01092030110920101F29B08C08EB38B7F61
S11301B08EBB809101018F5F80930101F0990E94B1
S11301C0B000F19B6DC08EB38D7F8EBB95B180E284
S11301D0892785B9A0910201E1E0EA0FB0E0AB5FA5
S11301E0BE4F4DE44C93A1E0AE0FF0E0EB5FFE4F49
S11301F035E43083E1E0EA0FB0E0AB5FBE4F81E36A
S11302008C93A1E0AE0FF0E0EB5FFE4F2AE3208376
S1130210E1E0EA0FB0E050910301AB5FBE4F5C93A5
S1130220A1E0AE0FF0E0EB5FFE4F9BE39083E1E0D3
S1130230EA0FB0E0AB5FBE4F8AE08C935F5F5093F0
S11302400301A1E0AE0FF0E0EB5FFE4F4083E1E07D
S1130250EA0FB0E0AB5FBE4F3C93A1E0AE0FF0E01D
S1130260EB5FFE4F32E33083E1E0EA0FB0E0AB5FD7
S1130270BE4F2C93A1E0AE0FF0E0EB5FFE4F209158
S113028001012083E1E0EA0FB0E0AB5FBE4F9C9335
S113029091E09E0F90930201F0E0EB5FFE4F8083AC
S11302A08091C00085FF80CFE09100018091020120
S11302B0E81709F479CF81E08E0F80930001F0E014
S11302C0EB5FFE4F80818093C6006ECFF894FFCF22
S9030000FC
