S01B000053656C656363696F6E61646F725F43616A61732E737265638D
S11300000C9434000C9481000C9446000C9446002B
S11300100C9446000C9446000C9446000C94460044
S11300200C9446000C9446000C9446000C94480032
S11300300C9465000C9446000C9446000C94460005
S11300400C9446000C9446000C9446000C94460014
S11300500C9446000C9446000C9446000C94460004
S11300600C9446000C94460011241FBECFEFD8E038
S1130070DEBFCDBF22E0A0E0B1E001C01D92A930F7
S1130080B207E1F70E9400010C9426020C940000D0
S11300901F920F920FB60F9211248F939F93EF9399
S11300A0FF93E8E8F0E080819181805E914B918339
S11300B080838EB381608EBBFF91EF919F918F916E
S11300C00F900FBE0F901F9018951F920F920FB6AE
S11300D00F9211248F939F93EF93FF93EAE8F0E03C
S11300E0808191814496918380838EB384608EBB9A
S11300F0FF91EF919F918F910F900FBE0F901F90E2
S113010018951F920F920FB60F9211248F939F93FD
S1130110F5990FC08091840090918500909301011E
S11301208093000183E0809369008EB380628EBB6C
S11301300BC0809184009091850090930802809375
S113014007028EB380618EBB9F918F910F900FBE7B
S11301500F901F90189582E284B981E085B90895C3
S11301601092800082E08093810080E29EE490936C
S113017089008093880084E190E090938B008093C1
S11301808A0086E080936F0086B386BB089583E07F
S11301908093690081E08DBB8CB38CBB0895E0EC47
S11301A0F0E08081808382E0808388E08093C100D6
S11301B086E08093C20080E190E09093C500809334
S11301C0C40008958EB38E7F8EBB8091060181504A
S11301D080930601811106C082E3809306018EB3E9
S11301E082608EBB08958EB380688EBB8EB38F7D84
S11301F08EBB8EB38F7E8EBB83E08093690008959F
S1130200F8940E94AB000E94B0000E94CF000E94AC
S1130210C700789410920201109203011092050114
S11302201092040110920101109200011092080230
S11302301092070282E380930601F29B0EC08EB3F4
S11302408B7F8EBBF79B09C0199B03C08EB38F773E
S11302508EBB95B182E0892785B9F0990E94E200AE
S1130260F49B1BC08EB38F7E8EBB2091070230910E
S113027008028091000190910101281B390BAFE91C
S1130280B6E40E941702929582958F7089279F7019
S113029089279093050180930401F19BB2C08EB32A
S11302A08D7F8EBB95B180E2892785B9A09103012A
S11302B0E1E0EA0FB0E0A95FBE4F45E44C93A1E052
S11302C0AE0FF0E0E95FFE4F85E58083E1E0EA0FE1
S11302D0B0E0A95FBE4F80E58C93A1E0AE0FF0E0E3
S11302E0E95FFE4F2AE32083E1E0EA0FB0E0C0E0DB
S11302F0D1E08881A95FBE4F8C93A1E0AE0FF0E0FE
S11303008981E95FFE4F8083E1E0EA0FB0E0A95FF5
S1130310BE4F9BE39C93A1E0AE0FF0E0E95FFE4F7C
S11303208AE08083E1E0EA0FB0E0A95FBE4F4C931E
S1130330A1E0AE0FF0E0E95FFE4F34E43083E1E08A
S1130340EA0FB0E0A95FBE4F57E55C93A1E0AE0FA2
S1130350F0E0E95FFE4F2083E1E0EA0FB0E0C7E0A0
S1130360D2E05881A95FBE4F5C93A1E0AE0FF0E0EC
S11303705981E95FFE4F5083E1E0EA0FB0E0A95FE5
S1130380BE4F9C93A1E0AE0FF0E0E95FFE4F808387
S1130390E1E0EA0FB0E0A95FBE4F5DE45C93A1E049
S11303A0AE0FF0E0E95FFE4F4083E1E0EA0FB0E01A
S11303B0A95FBE4F3C93A1E0AE0FF0E0E95FFE4FB2
S11303C02083E1E0EA0FB0E0C4E0D1E02881A95F36
S11303D0BE4F2C93A1E0AE0FF0E02981E95FFE4F00
S11303E02083E1E0EA0FB0E0A95FBE4F9C9391E067
S11303F09E0F90930301F0E0E95FFE4F80830E941B
S1130400F3008091C00085FF18CFE0910201809134
S11304100301E81709F411CF81E08E0F80930201E4
S1130420F0E0E95FFE4F80818093C60006CFA29F73
S1130430B001B39FC001A39F700D811D1124911DB4
S1130440B29F700D811D1124911D0895F894FFCF62
S9030000FC
