S01B000053656C656363696F6E61646F725F43616A61732E737265638D
S11300000C9434000C9481000C9446000C9446002B
S11300100C9446000C9446000C9446000C94460044
S11300200C9446000C9446000C9446000C94480032
S11300300C9465000C9446000C9446000C94460005
S11300400C9446000C9446000C9446000C94460014
S11300500C9446000C9446000C9446000C94460004
S11300600C9446000C94460011241FBECFEFD8E038
S1130070DEBFCDBF22E0A0E0B1E001C01D92A830F8
S1130080B207E1F70E94FD000C94AA010C94000051
S11300901F920F920FB60F9211248F939F93EF9399
S11300A0FF93E8E8F0E080819181805E914B918339
S11300B080838EB381608EBBFF91EF919F918F916E
S11300C00F900FBE0F901F9018951F920F920FB6AE
S11300D00F9211248F939F93EF93FF93EAE8F0E03C
S11300E0808191814496918380838EB384608EBB9A
S11300F0FF91EF919F918F910F900FBE0F901F90E2
S113010018951F920F920FB60F9211248F939F93FD
S11301100AB405FC0FC080918400909185009093EF
S113012001018093000182E0809369008AB58062B6
S11301308ABD0BC080918400909185009093070242
S1130140809306028AB580618ABD9F918F910F903A
S11301500FBE0F901F90189582E284B981E085B993
S113016008951092800082E08093810080E29EE4F2
S1130170909389008093880084E190E090938B00B1
S113018080938A0086E080936F0086B386BB0895CF
S113019083E08093690081E08DBB8CB38CBB0895B0
S11301A0E0ECF0E08081808382E0808388E08093CB
S11301B0C10086E08093C20080E190E09093C50086
S11301C08093C40008958EB38E7F8EBB8091050109
S11301D0815080930501811106C082E3809305015B
S11301E08EB382608EBB08958EB380688EBB83E02D
S11301F0809369008CB38CBB0895F8940E94AC0082
S11302000E94B1000E94D0000E94C8000E94F40025
S1130210789410920201109203011092040182E377
S113022080930501F29B0FC08EB38B7F8EBB0AB403
S113023007FE09C0199B03C08AB58F778ABD95B1A3
S113024082E0892785B9F0990E94E300F49B19C0E4
S11302508EB38F7E8EBB209106023091070280916F
S1130260000190910101281B390BAFE9B6E40E940B
S11302709B01929582958F7089279F70892780931F
S11302800401F19B42C08EB38D7F8EBB95B180E299
S1130290892785B9E0910301A1E0AE0FF0E0EA5FA0
S11302A0FE4F8DE48083E1E0EA0FB0E0AA5FBE4F29
S11302B085E48C93A1E0AE0FF0E0EA5FFE4F81E3AA
S11302C08083E1E0EA0FB0E0AA5FBE4F8AE38C933B
S11302D0A1E0AE0FF0E080910401EA5FFE4F80835D
S11302E0E1E0EA0FB0E0AA5FBE4F9BE39C9391E08C
S11302F09E0F90930301F0E0EA5FFE4F9AE0908333
S11303008F5F809304010E94F4008091C00085FFF8
S113031089CFE091020180910301E81709F482CFAB
S113032081E08E0F80930201F0E0EA5FFE4F80814E
S11303308093C60077CFA29FB001B39FC001A39F53
S1130340700D811D1124911DB29F700D811D11240A
S10B0350911D0895F894FFCFFC
S9030000FC
