:100000000C9434000C9446000C9446000C9446006A
:100010000C9446000C9446000C9446000C94460048
:100020000C9446000C9446000C9446000C94480036
:100030000C9465000C9446000C9446000C94460009
:100040000C9446000C9446000C9446000C94460018
:100050000C9446000C9446000C9446000C94460008
:100060000C9446000C94460011241FBECFEFD8E03C
:10007000DEBFCDBF22E0A0E0B1E001C01D92A43000
:10008000B207E1F70E94CF000C9442010C940000EB
:100090001F920F920FB60F9211248F939F93EF939D
:1000A000FF93E8E8F0E080819181805E914B91833D
:1000B00080838EB381608EBBFF91EF919F918F9172
:1000C0000F900FBE0F901F9018951F920F920FB6B2
:1000D0000F9211248F939F93EF93FF93EAE8F0E040
:1000E000808191814496918380838EB384608EBB9E
:1000F000FF91EF919F918F910F900FBE0F901F90E6
:10010000189582E284B981E085B908951092800043
:1001100082E08093810080E29EE490938900809346
:10012000880084E190E090938B0080938A0086E0C1
:1001300080936F0086B386BB089583E08093690047
:1001400081E08DBB9CB39CBB109268009BB39BBBB2
:1001500080936B000895E0ECF0E08081808382E082
:10016000808388E08093C10086E08093C20080E1B4
:1001700090E09093C5008093C40008958EB38E7F65
:100180008EBB80910301815080930301811106C0D1
:1001900082E3809303018EB382608EBB0895F8944E
:1001A0000E9481000E9486000E94AB000E949D0078
:1001B000789410920001109201011092020182E3E2
:1001C00080930301F29B03C08EB38B7F8EBBF099AB
:1001D0000E94BE00F19B40C08EB38D7F8EBB95B157
:1001E00080E2892785B9E0910101A1E0AE0FF0E03E
:1001F000EC5FFE4F8DE48083E1E0EA0FB0E0AC5F9E
:10020000BE4F85E48C93A1E0AE0FF0E0EC5FFE4FB3
:1002100081E38083E1E0EA0FB0E0AC5FBE4F8AE3A8
:100220008C93A1E0AE0FF0E080910201EC5FFE4FF5
:100230008083E1E0EA0FB0E0AC5FBE4F9BE39C93AC
:1002400091E09E0F90930101F0E0EC5FFE4F9AE089
:1002500090838F5F809302018091C00085FFB2CFB1
:10026000E091000180910101E81709F4ABCF81E032
:100270008E0F80930001F0E0EC5FFE4F8081809351
:08028000C600A0CFF894FFCFE7
:00000001FF
